{
  "contractName": "EtherStore",
  "abi": [
    {
      "inputs": [
        {
          "internalType": "address",
          "name": "",
          "type": "address"
        }
      ],
      "name": "balances",
      "outputs": [
        {
          "internalType": "uint256",
          "name": "",
          "type": "uint256"
        }
      ],
      "stateMutability": "view",
      "type": "function"
    },
    {
      "inputs": [],
      "name": "deposit",
      "outputs": [],
      "stateMutability": "payable",
      "type": "function"
    },
    {
      "inputs": [],
      "name": "withdraw",
      "outputs": [],
      "stateMutability": "nonpayable",
      "type": "function"
    },
    {
      "inputs": [],
      "name": "getBalance",
      "outputs": [
        {
          "internalType": "uint256",
          "name": "",
          "type": "uint256"
        }
      ],
      "stateMutability": "view",
      "type": "function"
    },
    {
      "inputs": [
        {
          "internalType": "address",
          "name": "_account",
          "type": "address"
        }
      ],
      "name": "getBalanceOf",
      "outputs": [
        {
          "internalType": "uint256",
          "name": "",
          "type": "uint256"
        }
      ],
      "stateMutability": "view",
      "type": "function"
    }
  ],
  "bytecode": "0x608060405234801561001057600080fd5b506102a0806100206000396000f3fe60806040526004361061004a5760003560e01c806312065fe01461004f57806327e235e3146100705780633ccfd60b1461009d5780639b96eece146100b4578063d0e30db0146100ea575b600080fd5b34801561005b57600080fd5b50475b60405190815260200160405180910390f35b34801561007c57600080fd5b5061005e61008b366004610214565b60006020819052908152604090205481565b3480156100a957600080fd5b506100b26100f2565b005b3480156100c057600080fd5b5061005e6100cf366004610214565b6001600160a01b031660009081526020819052604090205490565b6100b26101ee565b336000908152602081905260409020548061014b5760405162461bcd60e51b8152602060048201526014602482015273496e73756666696369656e742062616c616e636560601b60448201526064015b60405180910390fd5b604051600090339083908381818185875af1925050503d806000811461018d576040519150601f19603f3d011682016040523d82523d6000602084013e610192565b606091505b50509050806101da5760405162461bcd60e51b81526020600482015260146024820152732330b4b632b2103a379039b2b7321022ba3432b960611b6044820152606401610142565b505033600090815260208190526040812055565b336000908152602081905260408120805434929061020d908490610244565b9091555050565b60006020828403121561022657600080fd5b81356001600160a01b038116811461023d57600080fd5b9392505050565b6000821982111561026557634e487b7160e01b600052601160045260246000fd5b50019056fea2646970667358221220ab2241f4941ecffa89dec7fbc61e6e33d356fbfbaa9a191baba0314a26d438ee64736f6c634300080b0033",
  "immutableReferences": {},
  "source": "// SPDX-License-Identifier: MIT\npragma solidity ^0.8.11;\n\n/**\n * EtherStore - 有漏洞的银行合约\n * 漏洞：先转账后扣余额，导致重入攻击\n */\ncontract EtherStore {\n    mapping(address => uint256) public balances;\n\n    /**\n     * 存款：将 ETH 存入合约\n     */\n    function deposit() public payable {\n        balances[msg.sender] += msg.value;\n    }\n\n    /**\n     * 取款 - 有漏洞！\n     * 问题：先转账（call），后扣余额\n     * 这会导致攻击者可以在 fallback() 中递归调用取款\n     */\n    function withdraw() public {\n        uint256 bal = balances[msg.sender];\n        require(bal > 0, \"Insufficient balance\");\n        \n        // 问题1：使用 low-level call 转账\n        // 问题2：扣余额的代码在转账之后\n        (bool sent, ) = msg.sender.call{value: bal}(\"\");\n        require(sent, \"Failed to send Ether\");\n        \n        // 这里修改状态太晚了！\n        balances[msg.sender] = 0;\n    }\n\n    /**\n     * 查看合约余额\n     */\n    function getBalance() public view returns (uint256) {\n        return address(this).balance;\n    }\n\n    /**\n     * 获取用户余额\n     */\n    function getBalanceOf(address _account) public view returns (uint256) {\n        return balances[_account];\n    }\n}\n",
  "sourcePath": "C:\\Users\\ZhuanZ1\\Desktop\\smart-contract-security\\contracts\\EtherStore.sol",
  "compiler": {
    "name": "solc",
    "version": "0.8.11+commit.d7f03943.Emscripten.clang"
  },
  "schemaVersion": "3.4.16",
  "updatedAt": "2026-04-24T17:04:26.626Z",
  "devdoc": {
    "kind": "dev",
    "methods": {},
    "version": 1
  },
  "userdoc": {
    "kind": "user",
    "methods": {
      "deposit()": {
        "notice": "存款：将 ETH 存入合约"
      },
      "getBalance()": {
        "notice": "查看合约余额"
      },
      "getBalanceOf(address)": {
        "notice": "获取用户余额"
      },
      "withdraw()": {
        "notice": "取款 - 有漏洞！ 问题：先转账（call），后扣余额 这会导致攻击者可以在 fallback() 中递归调用取款"
      }
    },
    "notice": "EtherStore - 有漏洞的银行合约 漏洞：先转账后扣余额，导致重入攻击",
    "version": 1
  }
}