{
  "contractName": "FixedEtherStore",
  "abi": [
    {
      "inputs": [
        {
          "internalType": "address",
          "name": "",
          "type": "address"
        }
      ],
      "name": "balances",
      "outputs": [
        {
          "internalType": "uint256",
          "name": "",
          "type": "uint256"
        }
      ],
      "stateMutability": "view",
      "type": "function"
    },
    {
      "inputs": [],
      "name": "deposit",
      "outputs": [],
      "stateMutability": "payable",
      "type": "function"
    },
    {
      "inputs": [],
      "name": "withdraw",
      "outputs": [],
      "stateMutability": "nonpayable",
      "type": "function"
    },
    {
      "inputs": [],
      "name": "getBalance",
      "outputs": [
        {
          "internalType": "uint256",
          "name": "",
          "type": "uint256"
        }
      ],
      "stateMutability": "view",
      "type": "function"
    },
    {
      "inputs": [
        {
          "internalType": "address",
          "name": "_account",
          "type": "address"
        }
      ],
      "name": "getBalanceOf",
      "outputs": [
        {
          "internalType": "uint256",
          "name": "",
          "type": "uint256"
        }
      ],
      "stateMutability": "view",
      "type": "function"
    }
  ],
  "bytecode": "0x608060405234801561001057600080fd5b5061023b806100206000396000f3fe60806040526004361061004a5760003560e01c806312065fe01461004f57806327e235e3146100705780633ccfd60b1461009d5780639b96eece146100b4578063d0e30db0146100ea575b600080fd5b34801561005b57600080fd5b50475b60405190815260200160405180910390f35b34801561007c57600080fd5b5061005e61008b3660046101af565b60006020819052908152604090205481565b3480156100a957600080fd5b506100b26100f2565b005b3480156100c057600080fd5b5061005e6100cf3660046101af565b6001600160a01b031660009081526020819052604090205490565b6100b2610189565b336000908152602081905260409020548061014a5760405162461bcd60e51b8152602060048201526014602482015273496e73756666696369656e742062616c616e636560601b604482015260640160405180910390fd5b336000818152602081905260408082208290555183156108fc0291849190818181858888f19350505050158015610185573d6000803e3d6000fd5b5050565b33600090815260208190526040812080543492906101a89084906101df565b9091555050565b6000602082840312156101c157600080fd5b81356001600160a01b03811681146101d857600080fd5b9392505050565b6000821982111561020057634e487b7160e01b600052601160045260246000fd5b50019056fea2646970667358221220b395e273758f3f1e9867621c94f6a33bbf46c1c2cf6dfda33a55fa3852975df064736f6c634300080b0033",
  "immutableReferences": {},
  "source": "// SPDX-License-Identifier: MIT\npragma solidity ^0.8.11;\n\n/**\n * FixedEtherStore - 修复后的银行合约\n * 防御方法：Checks-Effects-Interactions 模式\n * 先修改状态（Effects），再进行外部调用（Interactions）\n */\ncontract FixedEtherStore {\n    mapping(address => uint256) public balances;\n\n    /**\n     * 存款：将 ETH 存入合约\n     */\n    function deposit() public payable {\n        balances[msg.sender] += msg.value;\n    }\n\n    /**\n     * 取款 - 已修复\n     * 防御核心：先扣余额（Checks + Effects），后转账（Interactions）\n     * 这样即使 fallback() 再次被触发，余额已经是 0，会失败\n     */\n    function withdraw() public {\n        uint256 bal = balances[msg.sender];\n        require(bal > 0, \"Insufficient balance\");\n        \n        // 防御点：先扣余额（Effects）\n        balances[msg.sender] = 0;\n        \n        // 后转账（Interactions）：此时即使 fallback() 被触发，余额已经是 0\n        // 使用 transfer 或 send 可以限制 gas，防止重入\n        payable(msg.sender).transfer(bal);\n    }\n\n    /**\n     * 查看合约余额\n     */\n    function getBalance() public view returns (uint256) {\n        return address(this).balance;\n    }\n\n    /**\n     * 获取用户余额\n     */\n    function getBalanceOf(address _account) public view returns (uint256) {\n        return balances[_account];\n    }\n}",
  "sourcePath": "C:\\Users\\ZhuanZ1\\Desktop\\smart-contract-security\\contracts\\FixedEtherStore.sol",
  "compiler": {
    "name": "solc",
    "version": "0.8.11+commit.d7f03943.Emscripten.clang"
  },
  "schemaVersion": "3.4.16",
  "updatedAt": "2026-04-24T17:04:26.635Z",
  "devdoc": {
    "kind": "dev",
    "methods": {},
    "version": 1
  },
  "userdoc": {
    "kind": "user",
    "methods": {
      "deposit()": {
        "notice": "存款：将 ETH 存入合约"
      },
      "getBalance()": {
        "notice": "查看合约余额"
      },
      "getBalanceOf(address)": {
        "notice": "获取用户余额"
      },
      "withdraw()": {
        "notice": "取款 - 已修复 防御核心：先扣余额（Checks + Effects），后转账（Interactions） 这样即使 fallback() 再次被触发，余额已经是 0，会失败"
      }
    },
    "notice": "FixedEtherStore - 修复后的银行合约 防御方法：Checks-Effects-Interactions 模式 先修改状态（Effects），再进行外部调用（Interactions）",
    "version": 1
  }
}