{
  "contractName": "FixedKingOfEther",
  "abi": [
    {
      "inputs": [],
      "name": "balance",
      "outputs": [
        {
          "internalType": "uint256",
          "name": "",
          "type": "uint256"
        }
      ],
      "stateMutability": "view",
      "type": "function"
    },
    {
      "inputs": [],
      "name": "king",
      "outputs": [
        {
          "internalType": "address",
          "name": "",
          "type": "address"
        }
      ],
      "stateMutability": "view",
      "type": "function"
    },
    {
      "inputs": [
        {
          "internalType": "address",
          "name": "",
          "type": "address"
        }
      ],
      "name": "pendingWithdrawals",
      "outputs": [
        {
          "internalType": "uint256",
          "name": "",
          "type": "uint256"
        }
      ],
      "stateMutability": "view",
      "type": "function"
    },
    {
      "inputs": [],
      "name": "claimThrone",
      "outputs": [],
      "stateMutability": "payable",
      "type": "function"
    },
    {
      "inputs": [],
      "name": "withdraw",
      "outputs": [],
      "stateMutability": "nonpayable",
      "type": "function"
    },
    {
      "inputs": [
        {
          "internalType": "address",
          "name": "_account",
          "type": "address"
        }
      ],
      "name": "getPendingWithdrawals",
      "outputs": [
        {
          "internalType": "uint256",
          "name": "",
          "type": "uint256"
        }
      ],
      "stateMutability": "view",
      "type": "function"
    },
    {
      "inputs": [],
      "name": "getBalance",
      "outputs": [
        {
          "internalType": "uint256",
          "name": "",
          "type": "uint256"
        }
      ],
      "stateMutability": "view",
      "type": "function"
    }
  ],
  "bytecode": "0x608060405234801561001057600080fd5b5061035e806100206000396000f3fe6080604052600436106100705760003560e01c8063b69ef8a81161004e578063b69ef8a8146100b6578063cc181ca8146100cc578063f340c0d014610104578063f3f437031461013a57600080fd5b806312065fe0146100755780633ccfd60b1461009757806369deb7b7146100ae575b600080fd5b34801561008157600080fd5b50475b6040519081526020015b60405180910390f35b3480156100a357600080fd5b506100ac610167565b005b6100ac610261565b3480156100c257600080fd5b5061008460015481565b3480156100d857600080fd5b506000546100ec906001600160a01b031681565b6040516001600160a01b03909116815260200161008e565b34801561011057600080fd5b5061008461011f3660046102f8565b6001600160a01b031660009081526002602052604090205490565b34801561014657600080fd5b506100846101553660046102f8565b60026020526000908152604090205481565b33600090815260026020526040902054806101bf5760405162461bcd60e51b81526020600482015260136024820152724e6f7468696e6720746f20776974686472617760681b60448201526064015b60405180910390fd5b336000818152600260205260408082208290555190919083908381818185875af1925050503d8060008114610210576040519150601f19603f3d011682016040523d82523d6000602084013e610215565b606091505b505090508061025d5760405162461bcd60e51b81526020600482015260146024820152732330b4b632b2103a379039b2b7321022ba3432b960611b60448201526064016101b6565b5050565b60015434116102b25760405162461bcd60e51b815260206004820152601f60248201527f4e65656420746f20706179206d6f726520746f206265636f6d65206b696e670060448201526064016101b6565b6000546001600160a01b0316156102e057600154600080546001600160a01b03168152600260205260409020555b600080546001600160a01b0319163317905534600155565b60006020828403121561030a57600080fd5b81356001600160a01b038116811461032157600080fd5b939250505056fea264697066735822122086bb034be14298dfcf1ffd985fc2c481a29ddb2063eaa589735fc8f32e50a82b64736f6c634300080b0033",
  "immutableReferences": {},
  "source": "// SPDX-License-Identifier: MIT\npragma solidity ^0.8.11;\n\n/**\n * FixedKingOfEther - 修复后的\"以太坊之王\"合约\n */\ncontract FixedKingOfEther {\n    address public king;\n    uint256 public balance;\n    mapping(address => uint256) public pendingWithdrawals;\n    \n    function claimThrone() external payable {\n        require(msg.value > balance, \"Need to pay more to become king\");\n        \n        // 修复：先记录旧国王的退款\n        if (king != address(0)) {\n            pendingWithdrawals[king] = balance;  // 使用 = 而不是 +=\n        }\n        \n        // 然后更新国王和余额\n        king = msg.sender;\n        balance = msg.value;\n    }\n    \n    function withdraw() external {\n        uint256 amount = pendingWithdrawals[msg.sender];\n        require(amount > 0, \"Nothing to withdraw\");\n        \n        // 先清零，防止重入攻击\n        pendingWithdrawals[msg.sender] = 0;\n        \n        // 后转账\n        (bool success, ) = msg.sender.call{value: amount}(\"\");\n        require(success, \"Failed to send Ether\");\n    }\n    \n    function getPendingWithdrawals(address _account) public view returns (uint256) {\n        return pendingWithdrawals[_account];\n    }\n    \n    function getBalance() public view returns (uint256) {\n        return address(this).balance;\n    }\n}",
  "sourcePath": "C:\\Users\\ZhuanZ1\\Desktop\\smart-contract-security\\contracts\\FixedKingOfEther.sol",
  "compiler": {
    "name": "solc",
    "version": "0.8.11+commit.d7f03943.Emscripten.clang"
  },
  "schemaVersion": "3.4.16",
  "updatedAt": "2026-04-24T17:04:26.655Z",
  "devdoc": {
    "kind": "dev",
    "methods": {},
    "version": 1
  },
  "userdoc": {
    "kind": "user",
    "methods": {},
    "notice": "FixedKingOfEther - 修复后的\"以太坊之王\"合约",
    "version": 1
  }
}