{
  "contractName": "FixedHackMe",
  "abi": [
    {
      "inputs": [
        {
          "internalType": "address",
          "name": "_libAddress",
          "type": "address"
        }
      ],
      "stateMutability": "nonpayable",
      "type": "constructor"
    },
    {
      "inputs": [],
      "name": "lib",
      "outputs": [
        {
          "internalType": "address",
          "name": "",
          "type": "address"
        }
      ],
      "stateMutability": "view",
      "type": "function"
    },
    {
      "inputs": [],
      "name": "owner",
      "outputs": [
        {
          "internalType": "address",
          "name": "",
          "type": "address"
        }
      ],
      "stateMutability": "view",
      "type": "function"
    },
    {
      "stateMutability": "payable",
      "type": "receive"
    },
    {
      "inputs": [
        {
          "internalType": "address",
          "name": "_target",
          "type": "address"
        },
        {
          "internalType": "bytes",
          "name": "_data",
          "type": "bytes"
        }
      ],
      "name": "safeCall",
      "outputs": [
        {
          "internalType": "bool",
          "name": "",
          "type": "bool"
        },
        {
          "internalType": "bytes",
          "name": "",
          "type": "bytes"
        }
      ],
      "stateMutability": "nonpayable",
      "type": "function"
    }
  ],
  "bytecode": "0x608060405234801561001057600080fd5b506040516103d73803806103d783398101604081905261002f91610062565b60008054336001600160a01b031991821617909155600180549091166001600160a01b0392909216919091179055610092565b60006020828403121561007457600080fd5b81516001600160a01b038116811461008b57600080fd5b9392505050565b610336806100a16000396000f3fe6080604052600436106100385760003560e01c80638da5cb5b1461004457806390630a211461008157806392801230146100af57600080fd5b3661003f57005b600080fd5b34801561005057600080fd5b50600054610064906001600160a01b031681565b6040516001600160a01b0390911681526020015b60405180910390f35b34801561008d57600080fd5b506100a161009c3660046101a8565b6100cf565b6040516100789291906102a8565b3480156100bb57600080fd5b50600154610064906001600160a01b031681565b600080546060906001600160a01b031633146101275760405162461bcd60e51b815260206004820152601360248201527213db9b1e481bdddb995c8818d85b8818d85b1b606a1b604482015260640160405180910390fd5b600080856001600160a01b03168560405161014291906102e4565b6000604051808303816000865af19150503d806000811461017f576040519150601f19603f3d011682016040523d82523d6000602084013e610184565b606091505b509097909650945050505050565b634e487b7160e01b600052604160045260246000fd5b600080604083850312156101bb57600080fd5b82356001600160a01b03811681146101d257600080fd5b9150602083013567ffffffffffffffff808211156101ef57600080fd5b818501915085601f83011261020357600080fd5b81358181111561021557610215610192565b604051601f8201601f19908116603f0116810190838211818310171561023d5761023d610192565b8160405282815288602084870101111561025657600080fd5b8260208601602083013760006020848301015280955050505050509250929050565b60005b8381101561029357818101518382015260200161027b565b838111156102a2576000848401525b50505050565b821515815260406020820152600082518060408401526102cf816060850160208701610278565b601f01601f1916919091016060019392505050565b600082516102f6818460208701610278565b919091019291505056fea2646970667358221220afdf6e97569753e1af2378a60f83ef73f2dea2496f9a48379fee5bba4446c69f64736f6c634300080b0033",
  "immutableReferences": {},
  "source": "// SPDX-License-Identifier: MIT\npragma solidity ^0.8.11;\n\n/**\n * FixedHackMe - 修复后的合约\n * \n * 防御方法：\n * 1. 避免使用 delegatecall\n * 2. 使用普通的 call 或直接调用库函数\n */\ncontract FixedHackMe {\n    address public owner;\n    address public lib;\n    \n    /**\n     * 构造函数\n     */\n    constructor(address _libAddress) {\n        owner = msg.sender;\n        lib = _libAddress;\n    }\n    \n    /**\n     * 安全的方式：使用普通的 call\n     * 但仍然需要谨慎，因为 call 会改变 msg.sender\n     */\n    function safeCall(address _target, bytes memory _data) public returns (bool, bytes memory) {\n        require(msg.sender == owner, \"Only owner can call\");\n        // 使用普通的 call 而不是 delegatecall\n        (bool success, bytes memory returnData) = _target.call(_data);\n        return (success, returnData);\n    }\n    \n    /**\n     * 更安全的方式：完全不使用 delegatecall\n     * 改为直接实现需要的功能\n     */\n    \n    /**\n     * receive 函数 - 接收 ETH\n     */\n    receive() external payable {}\n}\n",
  "sourcePath": "C:\\Users\\ZhuanZ1\\Desktop\\smart-contract-security\\contracts\\FixedHackMe.sol",
  "compiler": {
    "name": "solc",
    "version": "0.8.11+commit.d7f03943.Emscripten.clang"
  },
  "schemaVersion": "3.4.16",
  "updatedAt": "2026-04-24T17:04:26.644Z",
  "devdoc": {
    "kind": "dev",
    "methods": {},
    "version": 1
  },
  "userdoc": {
    "kind": "user",
    "methods": {
      "constructor": {
        "notice": "构造函数"
      },
      "safeCall(address,bytes)": {
        "notice": "安全的方式：使用普通的 call 但仍然需要谨慎，因为 call 会改变 msg.sender"
      }
    },
    "notice": "FixedHackMe - 修复后的合约  防御方法： 1. 避免使用 delegatecall 2. 使用普通的 call 或直接调用库函数",
    "version": 1
  }
}