{
  "contractName": "FixedWallet",
  "abi": [
    {
      "inputs": [],
      "stateMutability": "payable",
      "type": "constructor"
    },
    {
      "inputs": [],
      "name": "owner",
      "outputs": [
        {
          "internalType": "address",
          "name": "",
          "type": "address"
        }
      ],
      "stateMutability": "view",
      "type": "function"
    },
    {
      "stateMutability": "payable",
      "type": "receive"
    },
    {
      "inputs": [
        {
          "internalType": "address payable",
          "name": "_to",
          "type": "address"
        },
        {
          "internalType": "uint256",
          "name": "_amount",
          "type": "uint256"
        }
      ],
      "name": "transfer",
      "outputs": [],
      "stateMutability": "nonpayable",
      "type": "function"
    },
    {
      "inputs": [
        {
          "internalType": "address payable",
          "name": "_to",
          "type": "address"
        },
        {
          "internalType": "uint256",
          "name": "_amount",
          "type": "uint256"
        }
      ],
      "name": "transferOnlyEOA",
      "outputs": [],
      "stateMutability": "nonpayable",
      "type": "function"
    },
    {
      "inputs": [],
      "name": "getBalance",
      "outputs": [
        {
          "internalType": "uint256",
          "name": "",
          "type": "uint256"
        }
      ],
      "stateMutability": "view",
      "type": "function"
    }
  ],
  "bytecode": "0x6080604052600080546001600160a01b03191633179055610290806100256000396000f3fe6080604052600436106100435760003560e01c806312065fe01461004f5780638da5cb5b1461006f578063a9059cbb146100a7578063ea83589a146100c957600080fd5b3661004a57005b600080fd5b34801561005b57600080fd5b506040514781526020015b60405180910390f35b34801561007b57600080fd5b5060005461008f906001600160a01b031681565b6040516001600160a01b039091168152602001610066565b3480156100b357600080fd5b506100c76100c2366004610222565b6100e9565b005b3480156100d557600080fd5b506100c76100e4366004610222565b6101d3565b6000546001600160a01b031633146101345760405162461bcd60e51b81526020600482015260096024820152682737ba1037bbb732b960b91b60448201526064015b60405180910390fd5b6000826001600160a01b03168260405160006040518083038185875af1925050503d8060008114610181576040519150601f19603f3d011682016040523d82523d6000602084013e610186565b606091505b50509050806101ce5760405162461bcd60e51b81526020600482015260146024820152732330b4b632b2103a379039b2b7321022ba3432b960611b604482015260640161012b565b505050565b3332146100e95760405162461bcd60e51b815260206004820152601e60248201527f4f6e6c792065787465726e616c206163636f756e747320616c6c6f7765640000604482015260640161012b565b6000806040838503121561023557600080fd5b82356001600160a01b038116811461024c57600080fd5b94602093909301359350505056fea264697066735822122049a52d0e19e4fb5c248e605b90b77c1c201311d23a3530a99a06153ce58eb93264736f6c634300080b0033",
  "immutableReferences": {},
  "source": "// SPDX-License-Identifier: MIT\npragma solidity ^0.8.11;\n\n/**\n * FixedWallet - 修复后的钱包合约\n * \n * 防御方法：\n * 使用 msg.sender 代替 tx.origin\n * \n * 原因：\n * msg.sender 是直接调用者，可以是 EOAs 或合约\n * tx.origin 是原始发起者，总是外部账户\n * \n * 但如果确实需要区分EOAs和合约，可以使用：\n * - tx.origin == msg.sender（确认是直接调用，没有中间合约）\n */\ncontract FixedWallet {\n    address public owner;\n    \n    constructor() payable {\n        owner = msg.sender;\n    }\n    \n    /**\n     * transfer - 转账（已修复）\n     * \n     * 防御：使用 msg.sender 代替 tx.origin\n     */\n    function transfer(address payable _to, uint256 _amount) public {\n        // 防御：使用 msg.sender\n        require(msg.sender == owner, \"Not owner\");\n        \n        (bool sent, ) = _to.call{value: _amount}(\"\");\n        require(sent, \"Failed to send Ether\");\n    }\n    \n    /**\n     * 如果确实需要验证是 EOA（外部账户）而非合约，可以：\n     */\n    function transferOnlyEOA(address payable _to, uint256 _amount) public {\n        // 检查调用者是否是合约\n        require(msg.sender == tx.origin, \"Only external accounts allowed\");\n        require(msg.sender == owner, \"Not owner\");\n        \n        (bool sent, ) = _to.call{value: _amount}(\"\");\n        require(sent, \"Failed to send Ether\");\n    }\n    \n    /**\n     * 接收 ETH\n     */\n    receive() external payable {}\n    \n    /**\n     * 查看余额\n     */\n    function getBalance() public view returns (uint256) {\n        return address(this).balance;\n    }\n}\n",
  "sourcePath": "C:\\Users\\ZhuanZ1\\Desktop\\smart-contract-security\\contracts\\FixedWallet.sol",
  "compiler": {
    "name": "solc",
    "version": "0.8.11+commit.d7f03943.Emscripten.clang"
  },
  "schemaVersion": "3.4.16",
  "updatedAt": "2026-04-24T17:04:26.681Z",
  "devdoc": {
    "kind": "dev",
    "methods": {},
    "version": 1
  },
  "userdoc": {
    "kind": "user",
    "methods": {
      "getBalance()": {
        "notice": "查看余额"
      },
      "transfer(address,uint256)": {
        "notice": "transfer - 转账（已修复）  防御：使用 msg.sender 代替 tx.origin"
      },
      "transferOnlyEOA(address,uint256)": {
        "notice": "如果确实需要验证是 EOA（外部账户）而非合约，可以："
      }
    },
    "notice": "FixedWallet - 修复后的钱包合约  防御方法： 使用 msg.sender 代替 tx.origin  原因： msg.sender 是直接调用者，可以是 EOAs 或合约 tx.origin 是原始发起者，总是外部账户  但如果确实需要区分EOAs和合约，可以使用： - tx.origin == msg.sender（确认是直接调用，没有中间合约）",
    "version": 1
  }
}