{
  "contractName": "FixedTimeLock",
  "abi": [
    {
      "inputs": [
        {
          "internalType": "address",
          "name": "",
          "type": "address"
        }
      ],
      "name": "balances",
      "outputs": [
        {
          "internalType": "uint256",
          "name": "",
          "type": "uint256"
        }
      ],
      "stateMutability": "view",
      "type": "function"
    },
    {
      "inputs": [
        {
          "internalType": "address",
          "name": "",
          "type": "address"
        }
      ],
      "name": "lockTime",
      "outputs": [
        {
          "internalType": "uint256",
          "name": "",
          "type": "uint256"
        }
      ],
      "stateMutability": "view",
      "type": "function"
    },
    {
      "inputs": [],
      "name": "deposit",
      "outputs": [],
      "stateMutability": "payable",
      "type": "function"
    },
    {
      "inputs": [
        {
          "internalType": "uint256",
          "name": "_secondsToIncrease",
          "type": "uint256"
        }
      ],
      "name": "increaseLockTime",
      "outputs": [],
      "stateMutability": "nonpayable",
      "type": "function"
    },
    {
      "inputs": [],
      "name": "withdraw",
      "outputs": [],
      "stateMutability": "nonpayable",
      "type": "function"
    },
    {
      "inputs": [
        {
          "internalType": "address",
          "name": "_account",
          "type": "address"
        }
      ],
      "name": "getLockTime",
      "outputs": [
        {
          "internalType": "uint256",
          "name": "",
          "type": "uint256"
        }
      ],
      "stateMutability": "view",
      "type": "function"
    }
  ],
  "bytecode": "0x608060405234801561001057600080fd5b5061039d806100206000396000f3fe6080604052600436106100555760003560e01c806327e235e31461005a5780633ccfd60b1461009957806379af55e4146100b0578063a4beda63146100d0578063aa31aee8146100fd578063d0e30db014610133575b600080fd5b34801561006657600080fd5b506100876100753660046102f8565b60006020819052908152604090205481565b60405190815260200160405180910390f35b3480156100a557600080fd5b506100ae61013b565b005b3480156100bc57600080fd5b506100ae6100cb366004610328565b61028d565b3480156100dc57600080fd5b506100876100eb3660046102f8565b60016020526000908152604090205481565b34801561010957600080fd5b506100876101183660046102f8565b6001600160a01b031660009081526001602052604090205490565b6100ae6102b4565b336000908152602081905260409020546101915760405162461bcd60e51b8152602060048201526012602482015271496e73756666696369656e742066756e647360701b60448201526064015b60405180910390fd5b3360009081526001602052604090205442116101e75760405162461bcd60e51b8152602060048201526015602482015274131bd8dac81d1a5b59481b9bdd08195e1c1a5c9959605a1b6044820152606401610188565b33600081815260208190526040808220805490839055905190929083908381818185875af1925050503d806000811461023c576040519150601f19603f3d011682016040523d82523d6000602084013e610241565b606091505b50509050806102895760405162461bcd60e51b81526020600482015260146024820152732330b4b632b2103a379039b2b7321022ba3432b960611b6044820152606401610188565b5050565b33600090815260016020526040812080548392906102ac908490610341565b909155505050565b33600090815260208190526040812080543492906102d3908490610341565b909155506102e690504262093a80610341565b33600090815260016020526040902055565b60006020828403121561030a57600080fd5b81356001600160a01b038116811461032157600080fd5b9392505050565b60006020828403121561033a57600080fd5b5035919050565b6000821982111561036257634e487b7160e01b600052601160045260246000fd5b50019056fea2646970667358221220cc4218e9decc90715816fe84a52eae906b92cb833d238847d5aa157992285deb64736f6c634300080b0033",
  "immutableReferences": {},
  "source": "// SPDX-License-Identifier: MIT\npragma solidity ^0.8.11;\n\n/**\n * FixedTimeLock - 修复后的时间锁合约\n * \n * 防御方法：\n * 1. 使用 Solidity 0.8+ 内置溢出检查（自动 revert）\n * 2. 或者使用 SafeMath 库进行安全的数学运算\n */\ncontract FixedTimeLock {\n    mapping(address => uint256) public balances;\n    mapping(address => uint256) public lockTime;\n\n    /**\n     * 存款并锁定 1 周\n     */\n    function deposit() external payable {\n        balances[msg.sender] += msg.value;\n        lockTime[msg.sender] = block.timestamp + 1 weeks;\n    }\n\n    /**\n     * 增加锁定时间 - 已修复\n     * Solidity 0.8+ 会自动检查溢出，如果溢出会自动 revert\n     * 不需要额外使用 SafeMath\n     */\n    function increaseLockTime(uint256 _secondsToIncrease) public {\n        // Solidity 0.8+ 自动检查：如果会溢出，transaction 会被 revert\n        lockTime[msg.sender] += _secondsToIncrease;\n    }\n\n    /**\n     * 提款 - 需要通过时间锁检查\n     */\n    function withdraw() public {\n        require(balances[msg.sender] > 0, \"Insufficient funds\");\n        require(block.timestamp > lockTime[msg.sender], \"Lock time not expired\");\n        \n        uint256 amount = balances[msg.sender];\n        balances[msg.sender] = 0;\n        \n        (bool sent, ) = msg.sender.call{value: amount}(\"\");\n        require(sent, \"Failed to send Ether\");\n    }\n\n    /**\n     * 查看锁定时间\n     */\n    function getLockTime(address _account) public view returns (uint256) {\n        return lockTime[_account];\n    }\n}\n",
  "sourcePath": "C:\\Users\\ZhuanZ1\\Desktop\\smart-contract-security\\contracts\\FixedTimeLock.sol",
  "compiler": {
    "name": "solc",
    "version": "0.8.11+commit.d7f03943.Emscripten.clang"
  },
  "schemaVersion": "3.4.16",
  "updatedAt": "2026-04-24T17:04:26.666Z",
  "devdoc": {
    "kind": "dev",
    "methods": {},
    "version": 1
  },
  "userdoc": {
    "kind": "user",
    "methods": {
      "deposit()": {
        "notice": "存款并锁定 1 周"
      },
      "getLockTime(address)": {
        "notice": "查看锁定时间"
      },
      "increaseLockTime(uint256)": {
        "notice": "增加锁定时间 - 已修复 Solidity 0.8+ 会自动检查溢出，如果溢出会自动 revert 不需要额外使用 SafeMath"
      },
      "withdraw()": {
        "notice": "提款 - 需要通过时间锁检查"
      }
    },
    "notice": "FixedTimeLock - 修复后的时间锁合约  防御方法： 1. 使用 Solidity 0.8+ 内置溢出检查（自动 revert） 2. 或者使用 SafeMath 库进行安全的数学运算",
    "version": 1
  }
}