{
  "contractName": "HackMe",
  "abi": [
    {
      "inputs": [
        {
          "internalType": "address",
          "name": "_libAddress",
          "type": "address"
        }
      ],
      "stateMutability": "nonpayable",
      "type": "constructor"
    },
    {
      "stateMutability": "payable",
      "type": "fallback"
    },
    {
      "inputs": [],
      "name": "lib",
      "outputs": [
        {
          "internalType": "address",
          "name": "",
          "type": "address"
        }
      ],
      "stateMutability": "view",
      "type": "function"
    },
    {
      "inputs": [],
      "name": "owner",
      "outputs": [
        {
          "internalType": "address",
          "name": "",
          "type": "address"
        }
      ],
      "stateMutability": "view",
      "type": "function"
    },
    {
      "stateMutability": "payable",
      "type": "receive"
    },
    {
      "inputs": [],
      "name": "getOwnerSlot",
      "outputs": [
        {
          "internalType": "uint256",
          "name": "",
          "type": "uint256"
        }
      ],
      "stateMutability": "pure",
      "type": "function"
    }
  ],
  "bytecode": "0x608060405234801561001057600080fd5b5060405161024d38038061024d83398101604081905261002f91610062565b60008054336001600160a01b031991821617909155600180549091166001600160a01b0392909216919091179055610092565b60006020828403121561007457600080fd5b81516001600160a01b038116811461008b57600080fd5b9392505050565b6101ac806100a16000396000f3fe6080604052600436106100385760003560e01c80631ee31192146100ed5780638da5cb5b1461010e57806392801230146101465761003f565b3661003f57005b6001546040516000916001600160a01b03169061005f9083903690610166565b600060405180830381855af49150503d806000811461009a576040519150601f19603f3d011682016040523d82523d6000602084013e61009f565b606091505b50509050806100ea5760405162461bcd60e51b815260206004820152601360248201527211195b1959d85d1958d85b1b0819985a5b1959606a1b604482015260640160405180910390fd5b50005b3480156100f957600080fd5b50604051600081526020015b60405180910390f35b34801561011a57600080fd5b5060005461012e906001600160a01b031681565b6040516001600160a01b039091168152602001610105565b34801561015257600080fd5b5060015461012e906001600160a01b031681565b818382376000910190815291905056fea2646970667358221220c437364d874565cee7409c372af1e8f4dbde7ee12813b64d4e58bfb429c8373f64736f6c634300080b0033",
  "immutableReferences": {},
  "source": "// SPDX-License-Identifier: MIT\r\npragma solidity ^0.8.11;\r\n\r\ncontract HackMe {\r\n    // 第一个状态变量owner默认存在存储槽0\r\n    address public owner;\r\n    address public lib;\r\n\r\n    constructor(address _libAddress) {\r\n        owner = msg.sender;\r\n        lib = _libAddress;\r\n    }\r\n\r\n    fallback() external payable {\r\n        (bool success, ) = lib.delegatecall(msg.data);\r\n        require(success, \"Delegatecall failed\");\r\n    }\r\n\r\n    receive() external payable {}\r\n\r\n    // 返回owner所在的存储槽编号，类型修正为uint256\r\n    function getOwnerSlot() public pure returns (uint256) {\r\n        return 0;\r\n    }\r\n}",
  "sourcePath": "C:\\Users\\ZhuanZ1\\Desktop\\smart-contract-security\\contracts\\HackMe.sol",
  "compiler": {
    "name": "solc",
    "version": "0.8.11+commit.d7f03943.Emscripten.clang"
  },
  "schemaVersion": "3.4.16",
  "updatedAt": "2026-04-24T17:04:26.698Z",
  "devdoc": {
    "kind": "dev",
    "methods": {},
    "version": 1
  },
  "userdoc": {
    "kind": "user",
    "methods": {},
    "version": 1
  }
}