{
  "contractName": "KingOfEther",
  "abi": [
    {
      "inputs": [],
      "name": "balance",
      "outputs": [
        {
          "internalType": "uint256",
          "name": "",
          "type": "uint256"
        }
      ],
      "stateMutability": "view",
      "type": "function"
    },
    {
      "inputs": [],
      "name": "king",
      "outputs": [
        {
          "internalType": "address",
          "name": "",
          "type": "address"
        }
      ],
      "stateMutability": "view",
      "type": "function"
    },
    {
      "inputs": [],
      "name": "claimThrone",
      "outputs": [],
      "stateMutability": "payable",
      "type": "function"
    },
    {
      "inputs": [],
      "name": "getBalance",
      "outputs": [
        {
          "internalType": "uint256",
          "name": "",
          "type": "uint256"
        }
      ],
      "stateMutability": "view",
      "type": "function"
    }
  ],
  "bytecode": "0x608060405234801561001057600080fd5b506101b8806100206000396000f3fe60806040526004361061003f5760003560e01c806312065fe01461004457806369deb7b714610066578063b69ef8a814610070578063cc181ca814610086575b600080fd5b34801561005057600080fd5b50475b6040519081526020015b60405180910390f35b61006e6100be565b005b34801561007c57600080fd5b5061005360015481565b34801561009257600080fd5b506000546100a6906001600160a01b031681565b6040516001600160a01b03909116815260200161005d565b60015434116101135760405162461bcd60e51b815260206004820152601f60248201527f4e65656420746f20706179206d6f726520746f206265636f6d65206b696e6700604482015260640160405180910390fd5b600080546001546040516001600160a01b03909216918381818185875af1925050503d8060008114610161576040519150601f19603f3d011682016040523d82523d6000602084013e610166565b606091505b5050346001555050600080546001600160a01b0319163317905556fea2646970667358221220f90bfc37a6b34e2332e822e0338346d5a999b1396982da4a5acb6f9f34687e8064736f6c634300080b0033",
  "immutableReferences": {},
  "source": "// SPDX-License-Identifier: MIT\npragma solidity ^0.8.11;\n\n/**\n * KingOfEther - 有漏洞的\"以太坊之王\"合约\n * 漏洞：向旧国王转账时，没有处理转账失败的情况\n * \n * 攻击原理：\n * 攻击者成为国王后，如果他是合约且没有 receive() 函数\n * 那么当新的挑战者想要成为国王时，向旧国王（攻击合约）转账会失败\n * 导致整个合约卡死，无法继续游戏\n */\ncontract KingOfEther {\n    address public king;\n    uint256 public balance;\n    \n    /**\n     * claimThrone - 挑战王位\n     * \n     * 漏洞：向旧国王转账时，没有检查转账是否成功\n     * 如果旧国王是合约且不能接收 ETH，整个合约会卡死\n     */\n    function claimThrone() external payable {\n        require(msg.value > balance, \"Need to pay more to become king\");\n        \n        // 漏洞点：向旧国王转账，但没有检查是否成功\n        // 如果旧国王是合约且没有 receive() 函数，这里会失败\n        (bool sent, ) = king.call{value: balance}(\"\");\n        // 注意：这里没有 require(sent)！转账失败不会 revert\n        \n        balance = msg.value;\n        king = msg.sender;\n    }\n    \n    /**\n     * 查看合约余额\n     */\n    function getBalance() public view returns (uint256) {\n        return address(this).balance;\n    }\n}\n",
  "sourcePath": "C:\\Users\\ZhuanZ1\\Desktop\\smart-contract-security\\contracts\\KingOfEther.sol",
  "compiler": {
    "name": "solc",
    "version": "0.8.11+commit.d7f03943.Emscripten.clang"
  },
  "schemaVersion": "3.4.16",
  "updatedAt": "2026-04-24T17:04:26.721Z",
  "devdoc": {
    "kind": "dev",
    "methods": {},
    "version": 1
  },
  "userdoc": {
    "kind": "user",
    "methods": {
      "claimThrone()": {
        "notice": "claimThrone - 挑战王位  漏洞：向旧国王转账时，没有检查转账是否成功 如果旧国王是合约且不能接收 ETH，整个合约会卡死"
      },
      "getBalance()": {
        "notice": "查看合约余额"
      }
    },
    "notice": "KingOfEther - 有漏洞的\"以太坊之王\"合约 漏洞：向旧国王转账时，没有处理转账失败的情况  攻击原理： 攻击者成为国王后，如果他是合约且没有 receive() 函数 那么当新的挑战者想要成为国王时，向旧国王（攻击合约）转账会失败 导致整个合约卡死，无法继续游戏",
    "version": 1
  }
}