{
  "contractName": "TimeLock",
  "abi": [
    {
      "inputs": [
        {
          "internalType": "address",
          "name": "",
          "type": "address"
        }
      ],
      "name": "balances",
      "outputs": [
        {
          "internalType": "uint256",
          "name": "",
          "type": "uint256"
        }
      ],
      "stateMutability": "view",
      "type": "function"
    },
    {
      "inputs": [
        {
          "internalType": "address",
          "name": "",
          "type": "address"
        }
      ],
      "name": "lockTime",
      "outputs": [
        {
          "internalType": "uint256",
          "name": "",
          "type": "uint256"
        }
      ],
      "stateMutability": "view",
      "type": "function"
    },
    {
      "inputs": [],
      "name": "deposit",
      "outputs": [],
      "stateMutability": "payable",
      "type": "function"
    },
    {
      "inputs": [
        {
          "internalType": "uint256",
          "name": "_secondsToIncrease",
          "type": "uint256"
        }
      ],
      "name": "increaseLockTime",
      "outputs": [],
      "stateMutability": "nonpayable",
      "type": "function"
    },
    {
      "inputs": [],
      "name": "withdraw",
      "outputs": [],
      "stateMutability": "nonpayable",
      "type": "function"
    },
    {
      "inputs": [
        {
          "internalType": "address",
          "name": "_account",
          "type": "address"
        }
      ],
      "name": "getLockTime",
      "outputs": [
        {
          "internalType": "uint256",
          "name": "",
          "type": "uint256"
        }
      ],
      "stateMutability": "view",
      "type": "function"
    }
  ],
  "bytecode": "0x608060405234801561001057600080fd5b50610389806100206000396000f3fe6080604052600436106100555760003560e01c806327e235e31461005a5780633ccfd60b1461009957806379af55e4146100b0578063a4beda63146100e3578063aa31aee814610110578063d0e30db014610146575b600080fd5b34801561006657600080fd5b506100876100753660046102e4565b60006020819052908152604090205481565b60405190815260200160405180910390f35b3480156100a557600080fd5b506100ae61014e565b005b3480156100bc57600080fd5b506100ae6100cb366004610314565b33600090815260016020526040902080549091019055565b3480156100ef57600080fd5b506100876100fe3660046102e4565b60016020526000908152604090205481565b34801561011c57600080fd5b5061008761012b3660046102e4565b6001600160a01b031660009081526001602052604090205490565b6100ae6102a0565b336000908152602081905260409020546101a45760405162461bcd60e51b8152602060048201526012602482015271496e73756666696369656e742066756e647360701b60448201526064015b60405180910390fd5b3360009081526001602052604090205442116101fa5760405162461bcd60e51b8152602060048201526015602482015274131bd8dac81d1a5b59481b9bdd08195e1c1a5c9959605a1b604482015260640161019b565b33600081815260208190526040808220805490839055905190929083908381818185875af1925050503d806000811461024f576040519150601f19603f3d011682016040523d82523d6000602084013e610254565b606091505b505090508061029c5760405162461bcd60e51b81526020600482015260146024820152732330b4b632b2103a379039b2b7321022ba3432b960611b604482015260640161019b565b5050565b33600090815260208190526040812080543492906102bf90849061032d565b909155506102d290504262093a8061032d565b33600090815260016020526040902055565b6000602082840312156102f657600080fd5b81356001600160a01b038116811461030d57600080fd5b9392505050565b60006020828403121561032657600080fd5b5035919050565b6000821982111561034e57634e487b7160e01b600052601160045260246000fd5b50019056fea264697066735822122064677484c31a555d12586ea92a37253a60f420963396a527c1e7b9602397be4464736f6c634300080b0033",
  "immutableReferences": {},
  "source": "// SPDX-License-Identifier: MIT\npragma solidity ^0.8.11;\n\n/**\n * TimeLock - 有漏洞的时间锁合约\n * 漏洞：使用 Solidity 0.7.x 版本（无内置溢出检查），整数运算可能溢出\n * \n * 注意：本合约使用 0.8.11 版本，但由于使用 unchecked 模拟漏洞\n */\ncontract TimeLock {\n    mapping(address => uint256) public balances;\n    mapping(address => uint256) public lockTime;\n\n    /**\n     * 存款并锁定 1 周\n     */\n    function deposit() external payable {\n        balances[msg.sender] += msg.value;\n        lockTime[msg.sender] = block.timestamp + 1 weeks;\n    }\n\n    /**\n     * 增加锁定时间 - 有漏洞！\n     * 问题：如果 _secondsToIncrease 足够大，会导致整数溢出\n     * 例如：lockTime = 0xffffffff... + 1 = 0\n     */\n    function increaseLockTime(uint256 _secondsToIncrease) public {\n        // 使用 unchecked 模拟 Solidity < 0.8 的溢出行为\n        unchecked {\n            lockTime[msg.sender] += _secondsToIncrease;\n        }\n    }\n\n    /**\n     * 提款 - 需要通过时间锁检查\n     */\n    function withdraw() public {\n        require(balances[msg.sender] > 0, \"Insufficient funds\");\n        require(block.timestamp > lockTime[msg.sender], \"Lock time not expired\");\n        \n        uint256 amount = balances[msg.sender];\n        balances[msg.sender] = 0;\n        \n        (bool sent, ) = msg.sender.call{value: amount}(\"\");\n        require(sent, \"Failed to send Ether\");\n    }\n\n    /**\n     * 查看锁定时间\n     */\n    function getLockTime(address _account) public view returns (uint256) {\n        return lockTime[_account];\n    }\n}\n",
  "sourcePath": "C:\\Users\\ZhuanZ1\\Desktop\\smart-contract-security\\contracts\\TimeLock.sol",
  "compiler": {
    "name": "solc",
    "version": "0.8.11+commit.d7f03943.Emscripten.clang"
  },
  "schemaVersion": "3.4.16",
  "updatedAt": "2026-04-24T17:04:26.748Z",
  "devdoc": {
    "kind": "dev",
    "methods": {},
    "version": 1
  },
  "userdoc": {
    "kind": "user",
    "methods": {
      "deposit()": {
        "notice": "存款并锁定 1 周"
      },
      "getLockTime(address)": {
        "notice": "查看锁定时间"
      },
      "increaseLockTime(uint256)": {
        "notice": "增加锁定时间 - 有漏洞！ 问题：如果 _secondsToIncrease 足够大，会导致整数溢出 例如：lockTime = 0xffffffff... + 1 = 0"
      },
      "withdraw()": {
        "notice": "提款 - 需要通过时间锁检查"
      }
    },
    "notice": "TimeLock - 有漏洞的时间锁合约 漏洞：使用 Solidity 0.7.x 版本（无内置溢出检查），整数运算可能溢出  注意：本合约使用 0.8.11 版本，但由于使用 unchecked 模拟漏洞",
    "version": 1
  }
}