{
  "contractName": "Wallet",
  "abi": [
    {
      "inputs": [],
      "stateMutability": "payable",
      "type": "constructor"
    },
    {
      "inputs": [],
      "name": "owner",
      "outputs": [
        {
          "internalType": "address",
          "name": "",
          "type": "address"
        }
      ],
      "stateMutability": "view",
      "type": "function"
    },
    {
      "stateMutability": "payable",
      "type": "receive"
    },
    {
      "inputs": [
        {
          "internalType": "address payable",
          "name": "_to",
          "type": "address"
        },
        {
          "internalType": "uint256",
          "name": "_amount",
          "type": "uint256"
        }
      ],
      "name": "transfer",
      "outputs": [],
      "stateMutability": "nonpayable",
      "type": "function"
    },
    {
      "inputs": [],
      "name": "getBalance",
      "outputs": [
        {
          "internalType": "uint256",
          "name": "",
          "type": "uint256"
        }
      ],
      "stateMutability": "view",
      "type": "function"
    }
  ],
  "bytecode": "0x6080604052600080546001600160a01b03191633179055610216806100256000396000f3fe6080604052600436106100385760003560e01c806312065fe0146100445780638da5cb5b14610064578063a9059cbb1461009c57600080fd5b3661003f57005b600080fd5b34801561005057600080fd5b506040514781526020015b60405180910390f35b34801561007057600080fd5b50600054610084906001600160a01b031681565b6040516001600160a01b03909116815260200161005b565b3480156100a857600080fd5b506100bc6100b73660046101a8565b6100be565b005b6000546001600160a01b031632146101095760405162461bcd60e51b81526020600482015260096024820152682737ba1037bbb732b960b91b60448201526064015b60405180910390fd5b6000826001600160a01b03168260405160006040518083038185875af1925050503d8060008114610156576040519150601f19603f3d011682016040523d82523d6000602084013e61015b565b606091505b50509050806101a35760405162461bcd60e51b81526020600482015260146024820152732330b4b632b2103a379039b2b7321022ba3432b960611b6044820152606401610100565b505050565b600080604083850312156101bb57600080fd5b82356001600160a01b03811681146101d257600080fd5b94602093909301359350505056fea264697066735822122056527b587230ab182c0d76cc434ecdce6346f29e5898c0ab6e83845db4f47cb164736f6c634300080b0033",
  "immutableReferences": {},
  "source": "// SPDX-License-Identifier: MIT\npragma solidity ^0.8.11;\n\n/**\n * Wallet - 有漏洞的钱包合约\n * 漏洞：使用 tx.origin 做权限判断\n * \n * tx.origin vs msg.sender：\n * - tx.origin: 最初发起交易的外层账户\n * - msg.sender: 直接调用者（可能是合约）\n */\ncontract Wallet {\n    address public owner;\n    \n    constructor() payable {\n        owner = msg.sender;\n    }\n    \n    /**\n     * transfer - 转账\n     * 漏洞点：使用 tx.origin 判断所有者\n     * \n     * 攻击场景：\n     * 1. Alice（钱包所有者）调用 Attack.attack()\n     * 2. Attack 合约调用 Wallet.transfer()\n     * 3. 此时 msg.sender = Attack，tx.origin = Alice\n     * 4. require(tx.origin == owner) 成立（Alice == Alice）\n     * 5. 攻击成功：Alice 的钱包被 Attack 转空\n     */\n    function transfer(address payable _to, uint256 _amount) public {\n        // 漏洞：使用 tx.origin 判断权限\n        require(tx.origin == owner, \"Not owner\");\n        \n        (bool sent, ) = _to.call{value: _amount}(\"\");\n        require(sent, \"Failed to send Ether\");\n    }\n    \n    /**\n     * 接收 ETH\n     */\n    receive() external payable {}\n    \n    /**\n     * 查看余额\n     */\n    function getBalance() public view returns (uint256) {\n        return address(this).balance;\n    }\n}\n",
  "sourcePath": "C:\\Users\\ZhuanZ1\\Desktop\\smart-contract-security\\contracts\\Wallet.sol",
  "compiler": {
    "name": "solc",
    "version": "0.8.11+commit.d7f03943.Emscripten.clang"
  },
  "schemaVersion": "3.4.16",
  "updatedAt": "2026-04-24T17:04:26.769Z",
  "devdoc": {
    "kind": "dev",
    "methods": {},
    "version": 1
  },
  "userdoc": {
    "kind": "user",
    "methods": {
      "getBalance()": {
        "notice": "查看余额"
      },
      "transfer(address,uint256)": {
        "notice": "transfer - 转账 漏洞点：使用 tx.origin 判断所有者  攻击场景： 1. Alice（钱包所有者）调用 Attack.attack() 2. Attack 合约调用 Wallet.transfer() 3. 此时 msg.sender = Attack，tx.origin = Alice 4. require(tx.origin == owner) 成立（Alice == Alice） 5. 攻击成功：Alice 的钱包被 Attack 转空"
      }
    },
    "notice": "Wallet - 有漏洞的钱包合约 漏洞：使用 tx.origin 做权限判断  tx.origin vs msg.sender： - tx.origin: 最初发起交易的外层账户 - msg.sender: 直接调用者（可能是合约）",
    "version": 1
  }
}